{
  "contractName": "Ucdp",
  "abi": [
    {
      "inputs": [],
      "stateMutability": "nonpayable",
      "type": "constructor"
    },
    {
      "inputs": [
        {
          "internalType": "address",
          "name": "",
          "type": "address"
        }
      ],
      "name": "partners",
      "outputs": [
        {
          "internalType": "bytes32",
          "name": "name",
          "type": "bytes32"
        },
        {
          "internalType": "bool",
          "name": "enabled",
          "type": "bool"
        }
      ],
      "stateMutability": "view",
      "type": "function"
    }
  ],
  "bytecode": "0x608060405234801561001057600080fd5b5060405180604001604052807f706172746e65720000000000000000000000000000000000000000000000000081526020016001151581525060008061012373ffffffffffffffffffffffffffffffffffffffff1673ffffffffffffffffffffffffffffffffffffffff1681526020019081526020016000206000820151816000015560208201518160010160006101000a81548160ff0219169083151502179055509050506101b5806100c56000396000f3fe608060405234801561001057600080fd5b506004361061002b5760003560e01c806395c3365214610030575b600080fd5b61004a600480360381019061004591906100a7565b610061565b6040516100589291906100f2565b60405180910390f35b60006020528060005260406000206000915090508060000154908060010160009054906101000a900460ff16905082565b6000813590506100a181610168565b92915050565b6000602082840312156100bd576100bc610163565b5b60006100cb84828501610092565b91505092915050565b6100dd8161012d565b82525050565b6100ec81610139565b82525050565b600060408201905061010760008301856100e3565b61011460208301846100d4565b9392505050565b600061012682610143565b9050919050565b60008115159050919050565b6000819050919050565b600073ffffffffffffffffffffffffffffffffffffffff82169050919050565b600080fd5b6101718161011b565b811461017c57600080fd5b5056fea26469706673582212204f86f4bcfc003cd591d8b231520693495040c9bda99d57e0671da94a945ea45e64736f6c63430008070033",
  "immutableReferences": {},
  "source": "// SPDX-License-Identifier: UNLICENSED\npragma solidity >=0.8.0;\n\ncontract Ucdp {\n    struct Partner {\n        bytes32 name;\n        bool enabled;\n    }\n\n    mapping(address => Partner) public partners;\n\n    constructor() {\n        partners[address(0x123)] = Partner(\"partner\", true);\n    }\n}\n",
  "sourcePath": "/home/irenee/work/dev/rust/ucdp-server/smart-contracts/contracts/Ucdp.sol",
  "compiler": {
    "name": "solc",
    "version": "0.8.7+commit.e28d00a7.Emscripten.clang"
  },
  "schemaVersion": "3.4.2",
  "updatedAt": "2021-08-15T09:59:36.055Z",
  "devdoc": {
    "kind": "dev",
    "methods": {},
    "version": 1
  },
  "userdoc": {
    "kind": "user",
    "methods": {},
    "version": 1
  }
}